:100000000C9463000C948B000C948B000C94C80728
:100010000C94C8070C94C8070C948B000C948B00AC
:100020000C948B000C948B000C948B000C948B0024
:100030000C948B000C948B000C948B000C948B0014
:100040000C947E070C948B000C944C070C942607A0
:100050000C948B000C948B000C948B000C948B00F4
:100060000C9440080C948B00000000002400270032
:100070002A0000000008000201000003040700003D
:1000800000000000000000000000230026002900FE
:1000900000000000250028002B00040404040404D0
:1000A0000404020202020202030303030303010227
:1000B00004081020408001020408102001020408F6
:1000C00010205B09CC0A11241FBECFEFD8E0DEBFA1
:1000D000CDBF23E0A0E9B1E001C01D92A93AB2076B
:1000E000E1F711E0A0E0B1E0E0E7FDE102C005903A
:1000F0000D92A039B107D9F710E0C2E6D0E004C0F4
:100100002197FE010E94800DC136D107C9F70E94D8
:10011000000A0C94AB0E0C940000AF92BF92CF92E9
:10012000DF92EF92FF920F931F93CF93DF936C01B7
:100130007B018B01040F151FEB015E01AE18BF0898
:10014000C017D10759F06991D601ED91FC9101904A
:10015000F081E02DC6010995892B79F7C501DF9162
:10016000CF911F910F91FF90EF90DF90CF90BF90B4
:10017000AF900895FC01538D448D252F30E0842FDE
:1001800090E0821B930B541710F0CF9608950197BF
:100190000895FC01918D828D981761F0A28DAE0FAC
:1001A000BF2FB11D5D968C91928D9F5F9F73928F33
:1001B00090E008958FEF9FEF0895FC01918D828D5F
:1001C000981731F0828DE80FF11D858D90E008952C
:1001D0008FEF9FEF0895FC01918D228D892F90E084
:1001E000805C9F4F821B91098F73992708958EE43D
:1001F00092E00E94EB0021E0892B09F420E0822F9D
:10020000089580E090E0892B29F00E94F700811189
:100210000C9400000895FC01A48DA80FB92FB11D06
:10022000A35ABF4F2C91848D90E001968F7399272C
:10023000848FA689B7892C93A089B1898C9183700A
:1002400080648C93938D848D981306C00288F38903
:10025000E02D80818F7D80830895EF92FF920F9330
:100260001F93CF93DF93EC0181E0888F9B8D8C8D62
:1002700098131AC0E889F989808185FF15C09FB756
:10028000F894EE89FF896083E889F9898081837019
:10029000806480839FBF81E090E0DF91CF911F91C8
:1002A0000F91FF90EF900895F62E0B8D10E00F5FE9
:1002B0001F4F0F731127E02E8C8D8E110CC00FB6BF
:1002C00007FCFACFE889F989808185FFF5CFCE0157
:1002D0000E940B01F1CFEB8DEC0FFD2FF11DE35AC6
:1002E000FF4FF0829FB7F8940B8FEA89FB898081DA
:1002F0008062CFCFCF93DF93EC01888D8823B9F054
:10030000AA89BB89E889F9898C9185FD03C0808120
:1003100086FD0DC00FB607FCF7CF8C9185FFF2CF9D
:10032000808185FFEDCFCE010E940B01E9CFDF91E7
:10033000CF910895833081F028F4813099F0823094
:10034000A9F008958730A9F08830C9F08430B1F45D
:10035000809180008F7D03C0809180008F77809393
:100360008000089584B58F7784BD089584B58F7D0E
:10037000FBCF8091B0008F778093B000089580917B
:10038000B0008F7DF9CFCF93DF93282F30E0F901B4
:10039000EE58FF4F8491F901E255FF4FD491F901D6
:1003A000E656FF4FC491CC23A1F081110E949A011F
:1003B000EC2FF0E0EE0FFF1FEA57FF4FA591B4912D
:1003C000EC91ED2381E090E009F480E0DF91CF91A2
:1003D000089580E090E0FACF1F93CF93DF93282F0A
:1003E00030E0F901EE58FF4F8491F901E255FF4FDB
:1003F000D491F901E656FF4FC491CC23A9F0162FF2
:1004000081110E949A01EC2FF0E0EE0FFF1FE057E0
:10041000FF4FA591B4918FB7F894EC91111108C0DA
:10042000D095DE23DC938FBFDF91CF911F9108958C
:10043000DE2BF8CFCF93DF9390E0FC01E255FF4F26
:10044000249186569F4FFC0184918823D1F090E03F
:10045000880F991FFC01E859FF4FA591B491FC0149
:10046000E057FF4FC591D49161110EC09FB7F8942A
:100470008C91E22FE0958E238C932881E223E883F0
:100480009FBFDF91CF9108958FB7F894EC91E22B45
:10049000EC938FBFF6CF0F931F93CF93DF93EC01B5
:1004A000162F042F1B821A8288EE93E0A0E0B0E0A2
:1004B0008C839D83AE83BF838EE491E09983888390
:1004C0001F8A1E8A198E188E1B8E1A8E1D8E1C8EE8
:1004D0006E8D6E7F6D7F6E8F6695617081E068278F
:1004E000842F0E94EC0161E0802F0E941A02802F6D
:1004F00090E0FC01E255FF4FE491E88BFC01E656E9
:10050000FF4FE491F0E0EE0FFF1FE057FF4F8591A2
:1005100094919A8B898B60E0812F0E941A028E8DB4
:1005200081FD04C061E0812F0E94EC011C87812FB6
:1005300090E0FC01E255FF4FE491ED87FC01E656A7
:10054000FF4FE491F0E0EE0FFF1FEA57FF4F859158
:1005500094919F878E87DF91CF911F910F9108957E
:100560003FB7F8948091460290914702A0914802CB
:10057000B091490226B5A89B05C02F3F19F00196FE
:10058000A11DB11D3FBFBA2FA92F982F8827BC01ED
:10059000CD01620F711D811D911D42E0660F771F15
:1005A000881F991F4A95D1F708958F929F92AF9215
:1005B000BF92CF92DF92EF92FF924B015C010E94BB
:1005C000B0026B017C010E94B0026C197D098E099A
:1005D0009F09683E734081059105A8F321E0821AC6
:1005E0009108A108B10888EEC80E83E0D81EE11C6E
:1005F000F11C81149104A104B10429F7FF90EF903C
:10060000DF90CF90BF90AF909F908F9008952091F2
:100610004C0230914D022817390771F490914A022B
:1006200080914B02981741F0E0914A02F0E0EF5FB1
:10063000FD4F808190E008958FEF9FEF089508951A
:10064000EF92FF920F931F93CF93DF93DC015C96A1
:10065000ED90FC905D97E114F10479F481E090E075
:1006600013969C938E93129790E080E0DF91CF9148
:100670001F910F91FF90EF9008955196ED91FC918D
:10068000529750968C915097982F90950FB75E96F1
:100690002C915E97122F127021FD6095F8942081A5
:1006A000112319F1282B2083E7012197F1F728E086
:1006B000462F50E0308160FF1AC0382B3083E701AD
:1006C0002197F1F7BA0175956795215089F71123A4
:1006D00081F08081892380830FBF5C968D919C91EE
:1006E0000197F1F781E090E0C1CF2923DCCF3923D6
:1006F000E5CF9081892BEFCF20914C0230914D02B4
:100700002817390761F480914B0220914A0290E04A
:10071000805C9F4F821B91098F739927089590E009
:1007200080E0089520914C0230914D02281739073E
:10073000B9F490914A0280914B02981789F0E091A8
:100740004A02F0E0EF5FFD4F808120914A0230E0E5
:100750002F5F3F4F2F73332720934A0290E0089575
:100760008FEF9FEF0895E0914C02F0914D02E81752
:10077000F90769F4A389B4899C91858980958923B7
:100780008C9310924D0210924C0281E0089580E00B
:100790000895CF93DF93EC011B8E1A8E198E188E5D
:1007A0001F8A1E8A8DE991E09D8F8C8F8C85863102
:1007B000E0F52DEB30E03F8B2E8B2BE931E0398FCC
:1007C000288F2CE231E03B8F2A8F9091680088308F
:1007D00008F44EC021E08E3008F420E081E001C032
:1007E000880F2A95EAF7892B809368009C852DE66F
:1007F00030E0983050F02BE630E09E3030F02CE6C0
:1008000030E0963110F030E020E03C8B2B8B292F2C
:1008100030E0983078F581E001C0880F9A95EAF7CA
:100820008D8B8C8D9D8D0197F1F78A8D9B8D892BFA
:10083000E1F080914C0290914D02C817D907A9F0C0
:10084000009711F00E94B3038E8D8E7F8E8F1092D1
:100850004B0210924A02D0934D02C0934C02EB8996
:10086000FC8980819D89892B8083DF91CF910895B8
:1008700084E0B9CF9E3040F42850310981E001C0B6
:10088000880F2A95EAF7CCCF2E503109F7CFAF92D7
:10089000BF92CF92DF92EF92FF920F931F93CF936D
:1008A000DF93D82FB62EC8E09BEEE92EF12C2FE077
:1008B000C22ED12CAFB6F89461E08B2D0E941A02A3
:1008C0000D2F10E0D0FF1BC0C6010197F1F760E0CB
:1008D0008B2D0E941A02C7010197F1F7AFBE159543
:1008E0000795D02FC15031F7DF91CF911F910F9114
:1008F000FF90EF90DF90CF90BF90AF900895C70129
:100900000197F1F760E08B2D0E941A02C601E4CF37
:100910002091B701260F3327331F21323105ECF424
:100920002091DB01FC0190E080E0243069F082E05E
:100930000895A091B7012191AC0149565E4FA40FD3
:10094000B52FB11D2C930196861798F38091B701AE
:10095000680F6093B70180E0089581E008958FEFFC
:100960009FEF08958FEF9FEF08958091900190E0A1
:100970009195819591090895CF93DF93CB01EA0179
:10098000642F0E948804CE01DF91CF910895CF9308
:10099000DF931F92CDB7DEB7698361E0CE01019688
:1009A0000E94880481E090E00F90DF91CF9108953C
:1009B00090E080E0089561E083E00E94EC0165E052
:1009C00070E080E090E00E94D50260E083E00E9449
:1009D000EC0165E070E080E090E00E94D50261E00B
:1009E00083E00E94EC016AE070E080E090E00C940B
:1009F000D5021F93CF93DF93C82F61E00E941A02A4
:100A00008BE198E00197F1F71FB7F89460E08C2F25
:100A10000E941A0283E090E00197F1F7D0E58C2F55
:100A20000E94C301892B59F41FBFD9EC8C2F0E945F
:100A3000C301892B11F4D150C9F780E004C0D15013
:100A400071F71FBF81E0DF91CF911F910895FC01E5
:100A500001900020E9F73197AF01481B590BBC0109
:100A60008EE492E00C948D008F929F92AF92BF9291
:100A70000F931F93CF93DF93CDB7DEB7A1970FB638
:100A8000F894DEBF0FBECDBF19A2423008F44AE091
:100A90008E010F5D1F4F842E912CB12CA12CA5012E
:100AA00094010E945E0DE62FB901CA01EA30F4F408
:100AB000E05DD801EE938D01232B242B252B79F7B4
:100AC00090E080E0109719F0CD010E942705A196D3
:100AD0000FB6F894DEBF0FBECDBFDF91CF911F914F
:100AE0000F91BF90AF909F908F900895E95CE1CFF8
:100AF0000C9427054F925F926F927F928F929F92F4
:100B0000AF92BF92CF92DF92EF92FF920F931F931B
:100B1000CF936B017C01742EAC019B010E94590D97
:100B2000882399F08EE691E0CF911F910F91FF906D
:100B3000EF90DF90CF90BF90AF909F908F907F907D
:100B40006F905F904F900C94270546015701E894F1
:100B5000B7F82FEF3FEF4FE75FE7C501B4010E9401
:100B6000590D81110DC02FEF3FEF4FE75FE7C50132
:100B7000B4010E94220B18161CF482E791E0D4CF36
:100B80002FEF3FEF4FE75FE4C701B6010E94540D1E
:100B900018161CF486E791E0C7CF2FEF3FEF4FE721
:100BA0005FECC701B6010E94220B87FDF3CF20E066
:100BB00030E0A901C701B6010E94220B10E000E05D
:100BC00087FF0AC06DE28EE492E00E942D018C0145
:100BD000F7FAF094F7F8F094C0E060E070E080E09D
:100BE0009FE37C1641F020E030E040E251E40E94B7
:100BF000B30CCF5FF6CFA70196010E94470C2B01E3
:100C00003C010E94250D4B015C014AE00E94340525
:100C10007C01E00EF11ECC23C1F1C501B4010E949C
:100C2000270B9B01AC01C301B2010E94460C4B0192
:100C30005C016EE28EE492E00E942D01E80EF91E46
:100C4000C15018F120E030E040E251E4C501B401A8
:100C50000E94880B2B013C010E94250D4B01B12CF9
:100C6000A12C4AE0C501B4010E943405E80EF91E2A
:100C7000C501B4010E94270B9B01AC01C301B20165
:100C80000E94460C4B015C01DBCFC701CF911F9145
:100C90000F91FF90EF90DF90CF90BF90AF909F901B
:100CA0008F907F906F905F904F900895CF93809139
:100CB0003C0120E4829FC0011124826080937C006B
:100CC00080917A00806480937A0080917A0086FD1A
:100CD000FCCF8091780090917900909321018093CE
:100CE0002001CBE18EE492E00E94EB00892B69F0B9
:100CF000C15059F08EE492E00E94C90068EC70E0A7
:100D000080E090E00E94D502EDCF8AE791E00E945A
:100D100078058CE791E00E94780560912001709140
:100D2000210190E080E04AE00E94340581E891E0F2
:100D30000E9478054AE060E070E0CB010E94340533
:100D400088E891E00E9478058AE891E00E942705F2
:100D50008CE891E00E9427058EE492E0CF910C94FC
:100D60007A011F93CF93DF9385ED8093BC00809130
:100D7000930190919401A0919501B09196010796ED
:100D8000A11DB11D23E0B695A795979587952A9546
:100D9000D1F72091BC0024FD03C01092DB0152C0AA
:100DA0004091930150919401609195017091960149
:100DB000452B462B472B69F30097A105B10541F060
:100DC0002AE22A95F1F700C00197A109B109E1CF04
:100DD00080919201C1E0C0939101882399F1D09153
:100DE000B8001091BA008091BC008A7B8093BC004F
:100DF00060E082E10E94EC0160E083E10E94EC018E
:100E00001092DB01C093DD011092DC0161E082E110
:100E10000E94EC0161E083E10E94EC018091B90045
:100E20008E7F8093B9008091B9008D7F8093B90047
:100E300088E48093B80085E48093BC001093BA00E6
:100E4000D093B800DF91CF911F9108951F920F9218
:100E50000FB60F9211242F933F934F935F936F938D
:100E60007F938F939F93AF93BF93EF93FF938EE402
:100E700092E00E940B01FF91EF91BF91AF919F9182
:100E80008F917F916F915F914F913F912F910F9033
:100E90000FBE0F901F9018951F920F920FB60F92D2
:100EA00011242F938F939F93EF93FF93E0915E0212
:100EB000F0915F028081E0916402F091650282FD11
:100EC0001BC09081809167028F5F8F7320916802B1
:100ED000821741F0E0916702F0E0E25BFD4F958FF1
:100EE00080936702FF91EF919F918F912F910F90C7
:100EF0000FBE0F901F9018958081F4CF1F920F9214
:100F00000FB60F9211242F933F938F939F93AF931C
:100F1000BF938091420290914302A0914402B0910C
:100F200045023091410223E0230F2D3758F50196F9
:100F3000A11DB11D20934102809342029093430270
:100F4000A0934402B09345028091460290914702DB
:100F5000A0914802B09149020196A11DB11D809354
:100F6000460290934702A0934802B0934902BF9172
:100F7000AF919F918F913F912F910F900FBE0F9046
:100F80001F90189526E8230F0296A11DB11DD2CF00
:100F90001F920F920FB60F9211242F933F934F93EE
:100FA0005F936F937F938F939F93AF93BF93EF93D1
:100FB000FF93E0914C02F0914D02309749F0A685E5
:100FC000B7858585968D91FF14C09C918923A1F4E6
:100FD000FF91EF91BF91AF919F918F917F916F9111
:100FE0005F914F913F912F910F900FBE0F901F90E7
:100FF00018959C91892361F7A389B4899C9185896F
:10100000809589238C93868997890197F1F7608D64
:10101000718DA685B785558538E020E0CB01019715
:10102000F1F7822F90E095958795282F4C914523D5
:1010300009F02068315091F7868D81FD20958091CF
:101040004B0290E001968F73992730914A0238172E
:1010500099F0A0914B02B0E0AF5FBD4F2C9380930D
:101060004B02828D938D0197F1F7A389B4898C91FE
:101070009589892B8C93ACCF868D8160868FF1CF3B
:101080001F920F920FB60F9211242F933F934F93FD
:101090005F936F937F938F939F93AF93BF93EF93E0
:1010A000FF938091B900887F803609F44AC0F0F53B
:1010B000883209F4A5C018F5803109F499C0B8F454
:1010C000882309F4F5C0883009F492C0FF91EF91AC
:1010D000BF91AF919F918F917F916F915F914F9150
:1010E0003F912F910F900FBE0F901F901895883150
:1010F00009F486C0803251F78093DA0114C080343D
:1011000009F49BC040F48033B9F38833F9F6809337
:10111000DA0185ECAEC0803509F483C0883509F466
:1011200094C0883499F60E94B106D0CF883909F46A
:101130008AC038F5883729F050F4883611F08037A6
:1011400029F683E08093DB011092D90155C08838DD
:1011500009F479C0803919F0803809F0B7CF80914F
:10116000D901803208F06FC0E091D90181E08E0F83
:101170008093D9018091BB00F0E0E754FE4F80835B
:101180003BC0803B39F0D0F4803A09F477C0883A0C
:1011900009F09CCF84E08093DB011092B80110929B
:1011A000B701F0E0E0E009958091B70181110FC02F
:1011B00081E08093B7011092970109C0803C09F447
:1011C000A8CF883C09F4A5CF883B09F07FCFE091F8
:1011D000B80181E08E0F8093B801F0E0E956FE4F30
:1011E00080818093BB009091B8018091B70129C0A4
:1011F000809100028093BB0085EC8093BC0066CF99
:101200009091FF018091FE01981758F5E091FF0140
:1012100081E08E0F8093FF01F0E0E252FE4F80816B
:10122000E9CFE091FF0181E08E0F8093FF01809173
:10123000BB00F0E0E252FE4F80839091FF0180916D
:10124000FE019817C8F285E8D8CFE091FF0181E050
:101250008E0F8093FF018091BB00F0E0E252FE4FC1
:1012600080838091DD0181115ECF81E08093DC017C
:1012700084EA8093BC001092DB0128CF85EC809338
:10128000BC001092DB018091D901803230F4E091F2
:10129000D901F0E0E754FE4F10826091D90170E06F
:1012A00089EB91E0F0E0E0E009951092D9010ECFD2
:1012B0001092DA0138CF1F93CF93DF93EEE4F2E080
:1012C0001382128288EE93E0A0E0B0E084839583DD
:1012D000A683B78380E691E09183808385EC90E0DC
:1012E0009587848784EC90E09787868780EC90E0F0
:1012F000918B808B81EC90E0938B828B82EC90E0E1
:10130000958B848B86EC90E0978B868B118E128E5A
:10131000138E148EEAE6F3E0158214821782168289
:10132000118610861FEF138B148B158B168BE4E63A
:10133000F3E010821182138212821582148260E01F
:1013400082E00E941A0260E082E00E94EC01EEE579
:10135000F3E010821182138212821582148260E0FF
:1013600084E00E941A0260E084E00E94EC01E8E55B
:10137000F3E010821182138212821582148260E0DF
:1013800086E00E941A0260E086E00E94EC01E2E53D
:10139000F3E010821182138212821582148260E0BF
:1013A00087E00E941A0260E087E00E94EC014BE0B7
:1013B0006AE083E393E00E944B02CAE0D3E01C8220
:1013C0001B8283E393E00E94C90388EF8D8383E34C
:1013D00093E09983888381E08A8388E389A31AA3B1
:1013E0001BA31CA31DA31EA31FA318A71E8249E0B5
:1013F00068E08BEE92E0DF91CF911F910C944B024D
:10140000CF93DF9300D000D000D01F92CDB7DEB7CE
:10141000789484B5826084BD84B5816084BD85B5CF
:10142000826085BD85B5816085BD80916E008160DB
:1014300080936E0010928100809181008260809381
:101440008100809181008160809381008091800083
:101450008160809380008091B10084608093B100AE
:101460008091B00081608093B00080917A008460A8
:1014700080937A0080917A00826080937A008091D4
:101480007A00816080937A0080917A0080688093EE
:101490007A001092C10087E0E3E4F1E0DE011196EA
:1014A00001900D928A95E1F78E010F5F1F4F7E012B
:1014B00088E0E80EF11C61E0F80181918F010E9443
:1014C0001A02E016F106B9F760E083E00E94EC0131
:1014D00061E085E00E94EC0183E080933C01E091B3
:1014E0005E02F0915F0282E08083E0915A02F09107
:1014F0005B021082E0915C02F0915D028FEC8083D0
:1015000010926602E0916202F091630286E08083AD
:10151000E0916002F0916102808180618083E091BE
:101520006002F0916102808188608083E0916002B6
:10153000F0916102808180688083E0916002F09187
:10154000610280818F7D808383E393E00E94C903E1
:101550008BEE92E00E94C9030E9456066EE170E095
:1015600080E090E00E94D5020E94DB0400E010E0E1
:1015700068E873E180E090E00E94D5020E94560680
:101580000E94DB040115110599F30E94F7008823DE
:1015900079F30E940000ECCF0F931F93CF93DF935A
:1015A0000EE411E01093EC020093EB028BEE92E05C
:1015B0000E94B303C0910D03D0910E03209741F018
:1015C00019830883CE010E94B303CE010E94220E2C
:1015D0008EE491E0909334038093330383E393E0AC
:1015E0000E94B30380916E0390916F03009739F0CE
:1015F000DC01ED91FC910280F381E02D0995809151
:10160000700390917103009739F0DC01ED91FC912A
:101610000280F381E02D099580917203909173030C
:10162000009759F0DC01ED91FC910280F381E02DEF
:10163000DF91CF911F910F910994DF91CF911F916D
:101640000F9108950E94640B08F481E00895E894D6
:1016500009C097FB3EF490958095709561957F4FFA
:101660008F4F9F4F9923A9F0F92F96E9BB279395A8
:10167000F695879577956795B795F111F8CFFAF4B8
:10168000BB0F11F460FF1BC06F5F7F4F8F4F9F4FE9
:1016900016C0882311F096E911C0772321F09EE847
:1016A000872F762F05C0662371F096E8862F70E0AD
:1016B00060E02AF09A95660F771F881FDAF7880F87
:1016C0009695879597F90895990F0008550FAA0BDD
:1016D000E0E8FEEF16161706E807F907C0F0121645
:1016E0001306E407F50798F0621B730B840B950B48
:1016F00039F40A2661F0232B242B252B21F408959D
:101700000A2609F4A140A6958FEF811D811D089539
:101710000E949B0B0C940C0C0E94FE0B38F00E9454
:10172000050C20F0952311F00C94F50B0C94FB0B99
:1017300011240C94400C0E941D0C70F3959FC1F372
:10174000950F50E0551F629FF001729FBB27F00D6F
:10175000B11D639FAA27F00DB11DAA1F649F6627C4
:10176000B00DA11D661F829F2227B00DA11D621F13
:10177000739FB00DA11D621F839FA00D611D221FCD
:10178000749F3327A00D611D231F849F600D211DB1
:10179000822F762F6A2F11249F5750409AF0F1F034
:1017A00088234AF0EE0FFF1FBB1F661F771F881F9D
:1017B00091505040A9F79E3F510580F00C94F50BD5
:1017C0000C94400C5F3FE4F3983ED4F386957795F4
:1017D0006795B795F795E7959F5FC1F7FE2B880F43
:1017E000911D9695879597F9089597F99F6780E8D9
:1017F00070E060E008959FEF80EC089500240A9463
:101800001616170618060906089500240A941216DB
:101810001306140605060895092E0394000C11F40E
:10182000882352F0BB0F40F4BF2B11F460FF04C0BB
:101830006F5F7F4F8F4F9F4F089557FD9058440F14
:10184000551F59F05F3F71F04795880F97FB991F1F
:1018500061F09F3F79F087950895121613061406DC
:10186000551FF2CF4695F1DF08C016161706180669
:10187000991FF1CF86957105610508940895E89444
:10188000BB2766277727CB0197F908955058BB27C8
:10189000AA270E945E0C0C940C0C0E94FE0B38F0E0
:1018A0000E94050C20F039F49F3F19F426F40C94A3
:1018B000FB0B0EF4E095E7FB0C94F50BE92F0E946F
:1018C0001D0C58F3BA17620773078407950720F0B9
:1018D00079F4A6F50C943F0C0EF4E0950B2EBA2F7C
:1018E000A02D0B01B90190010C01CA01A001112426
:1018F000FF27591B99F0593F50F4503E68F11A16D2
:10190000F040A22F232F342F4427585FF3CF469562
:1019100037952795A795F0405395C9F77EF41F1684
:10192000BA0B620B730B840BBAF09150A1F0FF0F4E
:10193000BB1F661F771F881FC2F70EC0BA0F621F3A
:10194000731F841F48F4879577956795B795F7952A
:101950009E3F08F0B0CF9395880F08F09927EE0FBF
:101960009795879508950E94C70C0C940C0C0E94C3
:10197000050C58F00E94FE0B40F029F45F3F29F05F
:101980000C94F50B51110C94400C0C94FB0B0E9421
:101990001D0C68F39923B1F3552391F3951B550B57
:1019A000BB27AA2762177307840738F09F5F5F4F32
:1019B000220F331F441FAA1FA9F335D00E2E3AF071
:1019C000E0E832D091505040E695001CCAF72BD089
:1019D000FE2F29D0660F771F881FBB1F26173707DA
:1019E0004807AB07B0E809F0BB0B802DBF01FF270C
:1019F00093585F4F3AF09E3F510578F00C94F50BE9
:101A00000C94400C5F3FE4F3983ED4F386957795B1
:101A10006795B795F7959F5FC9F7880F911D9695C4
:101A2000879597F90895E1E0660F771F881FBB1F20
:101A3000621773078407BA0720F0621B730B840BCD
:101A4000BA0BEE1F88F7E09508950E94250C88F0E8
:101A50009F5798F0B92F9927B751B0F0E1F0660F72
:101A6000771F881F991F1AF0BA95C9F714C0B130B3
:101A700091F00E943F0CB1E008950C943F0C672F49
:101A8000782F8827B85F39F0B93FCCF386957795E2
:101A90006795B395D9F73EF49095809570956195CB
:101AA0007F4F8F4F9F4F08950E94640B08F48FEF74
:101AB00008950E94640B880B990B0895A1E21A2ED9
:101AC000AA1BBB1BFD010DC0AA1FBB1FEE1FFF1FE2
:101AD000A217B307E407F50720F0A21BB30BE40B32
:101AE000F50B661F771F881F991F1A9469F7609579
:101AF0007095809590959B01AC01BD01CF01089533
:101B0000EE0FFF1F0590F491E02D09940F931F93A2
:101B1000CF93DF938230910510F482E090E0E09162
:101B2000A703F091A80330E020E0B0E0A0E03097F8
:101B300099F42115310509F44AC0281B390B2430CA
:101B40003105D8F58A819B816115710589F1FB0109
:101B500093838283FE0111C04081518102811381F0
:101B600048175907E0F04817590799F4109761F0A2
:101B700012960C93129713961C933296CF01DF9115
:101B8000CF911F910F9108950093A7031093A8037D
:101B9000F4CF2115310551F04217530738F0A90150
:101BA000DB019A01BD01DF01F801C1CFEF01F9CFDF
:101BB0009093A8038093A703CDCFFE01E20FF31FFC
:101BC000819391932250310939832883D7CF209173
:101BD000A5033091A603232B41F420913F013091BE
:101BE00040013093A6032093A50320913D0130913D
:101BF0003E012115310541F42DB73EB74091410119
:101C000050914201241B350BE091A503F091A603EE
:101C1000E217F307A0F42E1B3F0B2817390778F0C3
:101C2000AC014E5F5F4F2417350748F04E0F5F1F22
:101C30005093A6034093A503819391939FCFF0E027
:101C4000E0E09CCFCF93DF930097E9F0FC0132975F
:101C500013821282A091A703B091A803ED0130E096
:101C600020E01097A1F420813181820F931F2091F1
:101C7000A5033091A6032817390709F061C0F09336
:101C8000A603E093A503DF91CF910895EA01CE1753
:101C9000DF07E8F54A815B819E0141155105B1F7E7
:101CA000E901FB83EA8349915991C40FD51FEC17D1
:101CB000FD0761F4808191810296840F951FE901EF
:101CC00099838883828193819B838A83F0E0E0E01B
:101CD00012968D919C9113970097B9F52D913C9197
:101CE0001197CD010296820F931F2091A503309189
:101CF000A6032817390739F6309751F51092A80333
:101D00001092A703B093A603A093A503BCCFD383DF
:101D1000C28340815181840F951FC817D90761F490
:101D20004E5F5F4F88819981480F591F51834083CF
:101D30008A819B81938382832115310509F0B0CF7D
:101D4000F093A803E093A7039ECFFD01DC01C0CF71
:101D500013821282D7CF10E0C2E6D0E004C0FE01A9
:101D60000E94800D2196C336D107C9F7F894FFCFA2
:101D70000000CA430000CA430000CA430000CA432F
:101D80000000CA4300004A4300807C45000080BF39
:101D90000000000080BF000080BF000080BF000086
:101DA00080BF000080BF000080BF0000010000A9CC
:101DB0000380000C0D0E0F1105030000000020032E
:101DC0008D00D8041F037C0392030703000000006A
:101DD0002D018D00BA007A01EB00C900DD006E61B3
:101DE0006E00696E66006F7666007B002262223AA2
:101DF000002C226E756D223A22007D000D0A000033
:00000001FF
